:100000000C942A001895000018950000189500001F
:10001000189500001895000018950000189500002C
:1000200018950000189500000C945E1B18950000B0
:10003000189500001895000018950000189500000C
:1000400018950000189500001895000018950000FC
:10005000189500008FE58DBFCCEFE0E14E2E88E0D3
:100060008EBFD7E0F7E05F2EA89584B7082E877F74
:1000700084BF88E1992781BD91BDEEEFF7E0A0E64E
:10008000B0E088278D933197E9F787E689B980E05A
:1000900080BD88E18AB9662488EC90E00E94761DD4
:1000A00070E07BBB70E07ABB70E078BB70E077BB40
:1000B00070E075BB7FE174BB70E072BB70E071BB38
:1000C0007091600078607093600081E080937D00A3
:1000D000A59A70916000726070936000C49AC59A8E
:1000E000C69AC79ABC9ABD9ABE9ABF9A8A988B98AC
:1000F0008C988D98D19AD29AD39AD49AD59AD69A26
:100100000E947C1C0E943D04E4E2F1E088E40E942D
:10011000CA1C58E0C895802D0E94C41C31965A957F
:10012000C9F704C019191E1E18181820E8E4F1E0D8
:1001300080E50E94CA1C58E0C895802D0E94C41C0E
:1001400031965A95C9F704C01C1C0F0F0C0C2020C7
:10015000ECE6F1E088E50E94CA1C58E0C895802DC5
:100160000E94C41C31965A95C9F704C01C1C030395
:1001700003060606E0E9F1E080E60E94CA1C58E0AA
:10018000C895802D0E94C41C31965A95C9F704C0A9
:100190000C0C0C1818181A0CE4EBF1E088E60E941D
:1001A000CA1C58E0C895802D0E94C41C31965A95EF
:1001B000C9F704C01C1C030303030606E8EDF1E0C5
:1001C00080E70E94CA1C58E0C895802D0E94C41C7C
:1001D00031965A95C9F704C0060C0C0C18181A0C65
:1001E000D19AD29AD39AD49AD59AD69AD79AB89ABB
:1001F000A69AA79A81E080938C0081E080938B007F
:100200000E94EF0A8BE083BF79B7726079BF79EF04
:100210007CBF0E94E01087E886B980E487B9379AEE
:1002200084E690E0A5E7B0E08D939C937091600028
:1002300070647093600080E080937700E0E0F0E00D
:10024000A0E1B0E00E9416200A3F10F00C942A01B1
:100250000C943301E0E0F0E0A0E1BB2780E08C9358
:100260007BE70E94052074B7777F74BF8CE181BD66
:1002700084E081BD81B5886081BD0E942F0E789495
:100280000E947910A1E6B0E0BA93AA930E94D80226
:10029000229600916100003011F00C9453010C94EF
:1002A000D1010C94D101013011F00C945B010E943A
:1002B0009E0C0C94D101023011F00C9463010E9449
:1002C000B90C0C94D101033011F00C946B010E9415
:1002D000D40C0C94D101043011F00C9473010E94E1
:1002E000EF0C0C94D101053011F00C947B010E94AD
:1002F0000A0D0C94D101063011F00C9483010E9478
:10030000250D0C94D101073011F00C948B010E9443
:10031000350D0C94D101083011F00C9493010E941A
:10032000560D0C94D101093011F00C949B010E94E0
:10033000770D0C94D1010A3011F00C94A3010E94A6
:100340008E0D0C94D1010B3011F00C94AB010E9476
:10035000A50D0C94D1010C3011F00C94B3010E9446
:10036000BC0D0C94D1010D3011F00C94BB010E9416
:10037000D30D0C94D1010E3011F00C94C3010E94E6
:10038000EA0D0C94D1010F3011F00C94CB010E94B6
:10039000010E0C94D101003111F00C94D1010E9496
:1003A000180E00917700023011F00C94E2010E94C7
:1003B000301C082F013011F00C94E0010E94AB0EAC
:1003C0000C940F0200917700043011F00C94F501A9
:1003D000A0E6B0E08C9186FB16F40C94F3010E9429
:1003E00095100E94A6100C940F0200917700033024
:1003F00011F00C940F02A0E6B0E08C9186FB16F48D
:100400000C940F0284EF91E0A5E7B0E08D939C93EC
:10041000709160007064709360000E94CF0FA89587
:100420000C94420181E00E94741E80E0A881B98191
:100430008C93C4980000000082990C94250281E0FE
:10044000A881B9818C930C943E0283990C942E025E
:1004500082E0A881B9818C930C943E0284990C941B
:10046000370283E0A881B9818C930C943E02859970
:100470000C943E0284E0A881B9818C93C49AA8812F
:10048000B9810C91003011F40C9448020C94CC0208
:10049000C5980000000082990C94540285E0A88160
:1004A000B9818C930C946D0283990C945D0286E063
:1004B000A881B9818C930C946D0284990C94660286
:1004C00087E0A881B9818C930C946D0285990C9476
:1004D0006D0288E0A881B9818C93C59AA881B98101
:1004E0000C91003011F40C9477020C94CC02C69855
:1004F0000000000082990C94830289E0A881B981F0
:100500008C930C949C0283990C948C028AE0A881B1
:10051000B9818C930C949C0284990C9495028BE085
:10052000A881B9818C930C949C0285990C949C02AF
:100530008CE0A881B9818C93C69AA881B9810C916D
:10054000003011F40C94A6020C94CC02C798000061
:10055000000082990C94B2028DE0A881B9818C933D
:100560000C94CB0283990C94BB028EE0A881B981D4
:100570008C930C94CB0284990C94C4028FE0A881D4
:10058000B9818C930C94CB0285990C94CB0280E1B9
:10059000A881B9818C93C79AA881B9818C91AA81CD
:1005A000BB818C9381E0481A80E0580A2296089516
:1005B00081E00E94741E80E0A881B9818C93009133
:1005C0007D00013011F00C940E03AEE7B0E0BA9359
:1005D000AA930E941202229600917E00003011F42C
:1005E0000C940C0383E080937D0080917E008093C7
:1005F0007F000E94A1030E949003A0E6B0E08C91CE
:1006000081FB16F00C940703AD9A0E94D4038091ED
:100610007E00A881B9818C930C94840300917D00A5
:10062000033011F00C942003A0E6B0E08C9185FB20
:1006300016F40C941E0382E080937D000C948403D6
:1006400000917D00023011F00C947403AEE7B0E02D
:10065000BA93AA930E941202229600917E00003063
:1006600081E009F080E08F9340917F0000917E004F
:10067000041781E009F480E09F91892B882311F40D
:100680000C94490384E080937D000E94B2030C9493
:100690007203A0E6B0E08C9183FB81E00EF080E075
:1006A0008F93A0E6B0E08C9184FB81E00EF480E0B3
:1006B0009F918923882311F40C94720383E0809323
:1006C0007D0080917F00A881B9818C930E94C30333
:1006D000A0E6B0E08C9181FB16F00C947203AD9A09
:1006E0000E94E2030C94840300917D00043011F019
:1006F0000C948403A0E6B0E08C9185FB16F40C9476
:10070000840381E080937D00A881B9818C91AA81C6
:10071000BB818C9381E0481A80E0580A22960895A4
:10072000709160007F7E7093600088EE93E0ABE78D
:10073000B0E08D939C937091600070617093600045
:100740000895709160007F7D7093600084E690E072
:10075000A9E7B0E08D939C937091600070627093F4
:1007600060000895709160007F7D7093600082E367
:1007700090E0A9E7B0E08D939C9370916000706267
:10078000709360000895709160007F7D70936000A9
:1007900088E290E0A9E7B0E08D939C9370916000AF
:1007A0007062709360000895709160007B7F709319
:1007B000600082E3809380007091600074607093A9
:1007C00060000895709160007B7F709360008AE004
:1007D0008093800070916000746070936000089551
:1007E000A0E6B0E08C9185FB16F00C940A04A9E712
:1007F000B0E00E94BF1BA9E7B0E00D911C91003052
:1008000050E0150711F00C940A04709160007F7D90
:1008100070936000A0E6B0E08C9184FB16F00C941D
:100820002404ABE7B0E00E94BF1BABE7B0E00D9142
:100830001C91003050E0150711F00C9424047091C5
:1008400060007F7E70936000A0E6B0E08C9182FB38
:1008500016F00C943C0480918000815080938000BD
:1008600000918000003011F00C943C047091600005
:100870007B7F70936000AD9808950E94671C8CE0A8
:100880000E94CA1C0895AC81BD812C91AA81BB81B4
:100890001C910E946C1CA881B9810E94551C08956E
:1008A00084E00E94741E83E00E94741E81E00E9416
:1008B000741EAC81BD81E885F9850E94901FAC81D2
:1008C000BD810E943020A881B9818C93EC81FD818B
:1008D000A8EFB6E00E94F21FE8EFF6E0AC81BD8120
:1008E0001127222703E033270E94DF1EAE81BF813C
:1008F0000C910A3018F011F00C949104AC81BD8178
:100900000E943020EA2FFB2FAE81BF810C913197DE
:10091000E01BF0400FEFAC81BD810E94F71F0C94EB
:100920005705AE81BF810C91043118F011F00C9481
:10093000FF04AE81BF818C918A508C93A881B981CC
:100940004C91AE81BF810C91041718F011F00C94FA
:10095000AB040C94EC04AE81BF810C91A881B981E9
:100960004C91041BAE81BF810C93AC81BD810E9470
:100970003020EA2FFB2FA881B9810C913197E01B21
:10098000F0400FEFAC81BD810E94F71FAE81BF81A7
:100990009C9180E2AA81BB810E94C71B85E00E94D6
:1009A000741EEE81FF81A881B9810E94F21FEC8143
:1009B000FD81AE81BF810E94F21FE881F981AE8185
:1009C000BF810E94241C0E94F21F85E0481A80E02B
:1009D000580A22960C94FD04AC81BD810E943020FF
:1009E000EA2FFB2FAE81BF810C913197E01BF040C5
:1009F0000FEFAC81BD810E94F71F0C945705AE81AB
:100A0000BF810C910E3118F011F00C945705AE8196
:100A1000BF818C9184518C93A881B9814C91AE8116
:100A2000BF810C91041718F011F00C9419050C9467
:100A30004605AE81BF810C91A881B9814C91041B00
:100A4000AE81BF810C93AC81BD810E943020EA2F22
:100A5000FB2FA881B9810C913197E01BF0400FEF7B
:100A6000AC81BD810E94F71FAE81BF819C9180E265
:100A7000AA81BB810E94C71BEA81FB81AC81BD8139
:100A80000E94241C0E94F21F0C945705AC81BD816A
:100A90000E943020EA2FFB2FAE81BF810C9131974D
:100AA000E01BF0400FEFAC81BD810E94F71FAC85C9
:100AB000BD852C91AA85BB851C910E946C1CAC81C4
:100AC000BD810E94551C88E0481A80E0580A26968D
:100AD000089585E00E94741EA881B981EE81FF818E
:100AE0000E94901FE881F981A8EFB6E00E94F21FF2
:100AF000E8EFF6E0A881B9811127222703E0332728
:100B00000E94DF1EA881B9810E943020EA2FFB2FAE
:100B1000AC81BD810C913197E01BF0400FEFA881B3
:100B2000B9810E94F71FAA81BB818C918F5F8C9342
:100B30008EE2AA81BB819C91A881B9810E947A1E14
:100B4000AA85BB852C91A885B9851C910E946C1C37
:100B5000A881B9810E94551C85E0481A80E0580A96
:100B60002296089583E00E94741EA885B9852C9171
:100B7000AE81BF811C910E946C1CA881B981EC815F
:100B8000FD810E94D61FA881B9810E943020EA2FE2
:100B9000FB2FAA81BB810C913197E01BF0400FEF36
:100BA000A881B9810E94F71FA881B9810E94551CB4
:100BB00083E0481A80E0580A2296089586E00E9451
:100BC000741E85E00E94741E81E00E94741EAC8138
:100BD000BD81E885F9850E94801FAC81BD810E949E
:100BE0003020A881B9818C93EC81FD81A8EFB6E01B
:100BF0000E94F21FE8EFF6E0AC81BD8111272227A9
:100C000005E033270E94DF1EAE81BF810C910A30C0
:100C100018F011F00C941F06AC81BD810E943020A9
:100C2000EA2FFB2FAE81BF810C913197E01BF04082
:100C30000FEFAC81BD810E94F71F0C94E506AE81D9
:100C4000BF810C91043118F011F00C948D06AE8127
:100C5000BF818C918A508C93A881B9814C91AE81CF
:100C6000BF810C91041718F011F00C9439060C9404
:100C70007A06AE81BF810C91A881B9814C91041B89
:100C8000AE81BF810C93AC81BD810E943020EA2FE0
:100C9000FB2FA881B9810C913197E01BF0400FEF39
:100CA000AC81BD810E94F71FAE81BF819C9180E223
:100CB000AA81BB810E94C71B87E00E94741EEE813F
:100CC000FF81A881B9810E94F21FEC81FD81AE8174
:100CD000BF810E94F21FE881F981AE81BF810E942D
:100CE000241C0E94F21F87E0481A80E0580A2296CE
:100CF0000C948B06AC81BD810E943020EA2FFB2F23
:100D0000AE81BF810C913197E01BF0400FEFAC81B9
:100D1000BD810E94F71F0C94E506AE81BF810C9146
:100D20000E3118F011F00C94E506AE81BF818C9164
:100D300084518C93A881B9814C91AE81BF810C9173
:100D4000041718F011F00C94A7060C94D406AE8189
:100D5000BF810C91A881B9814C91041BAE81BF81E8
:100D60000C93AC81BD810E943020EA2FFB2FA8811B
:100D7000B9810C913197E01BF0400FEFAC81BD8140
:100D80000E94F71FAE81BF819C9180E2AA81BB8146
:100D90000E94C71BEA81FB81AC81BD810E94241C9B
:100DA0000E94F21F0C94E506AC81BD810E943020A8
:100DB000EA2FFB2FAE81BF810C913197E01BF040F1
:100DC0000FEFAC81BD810E94F71FAC85BD852C91D2
:100DD000AA85BB851C910E946C1CAC81BD810E94C0
:100DE000551C8CE0481A80E0580A2696089587E042
:100DF0000E94741EA881B981EE81FF810E94801F2C
:100E0000E881F981A8EFB6E00E94F21FE8EFF6E072
:100E1000A881B9811127222705E033270E94DF1E10
:100E2000A881B9810E943020EA2FFB2FAC81BD81BF
:100E30000C913197E01BF0400FEFA881B9810E941F
:100E4000F71FAA81BB818C918F5F8C938EE2AA8160
:100E5000BB819C91A881B9810E947A1EAA85BB851D
:100E60002C91A885B9851C910E946C1CA881B98120
:100E70000E94551C87E0481A80E0580A229608957F
:100E800085E00E94741EA885B9852C91AE81BF8132
:100E90001C910E946C1CA881B981EC81FD810E948B
:100EA000D81FA881B9810E943020EA2FFB2FAA8188
:100EB000BB810C913197E01BF0400FEFA881B98105
:100EC0000E94F71FA881B9810E94551C85E0481A2D
:100ED00080E0580A229608958BE00E94741E8AE0F2
:100EE0000E94741E81E00E94741EAC81BD81E88561
:100EF000F9850E94861FAC81BD810E943020A881A7
:100F0000B9818C93EC81FD81A8EFB6E00E94F21FBD
:100F1000E8EFF6E0AC81BD81112722270AE03327F4
:100F20000E94DF1EAE81BF810C910A3018F011F0D3
:100F30000C94AD07AC81BD810E943020EA2FFB2FBD
:100F4000AE81BF810C913197E01BF0400FEFAC8177
:100F5000BD810E94F71F0C947308AE81BF810C9174
:100F6000043118F011F00C941B08AE81BF818C91F4
:100F70008A508C93A881B9814C91AE81BF810C912C
:100F8000041718F011F00C94C7070C940808AE81F0
:100F9000BF810C91A881B9814C91041BAE81BF81A6
:100FA0000C93AC81BD810E943020EA2FFB2FA881D9
:100FB000B9810C913197E01BF0400FEFAC81BD81FE
:100FC0000E94F71FAE81BF819C9180E2AA81BB8104
:100FD0000E94C71B8CE00E94741EEE81FF81A881D5
:100FE000B9810E94F21FEC81FD81AE81BF810E9418
:100FF000F21FE881F981AE81BF810E94241C0E940A
:10100000F21F8CE0481A80E0580A22960C941908C6
:10101000AC81BD810E943020EA2FFB2FAE81BF81C1
:101020000C913197E01BF0400FEFAC81BD810E9425
:10103000F71F0C947308AE81BF810C910E3118F02C
:1010400011F00C947308AE81BF818C9184518C9304
:10105000A881B9814C91AE81BF810C91041718F021
:1010600011F00C9435080C946208AE81BF810C918C
:10107000A881B9814C91041BAE81BF810C93AC81D6
:10108000BD810E943020EA2FFB2FA881B9810C91ED
:101090003197E01BF0400FEFAC81BD810E94F71F3C
:1010A000AE81BF819C9180E2AA81BB810E94C71B57
:1010B000EA81FB81AC81BD810E94241C0E94F21F49
:1010C0000C947308AC81BD810E943020EA2FFB2F65
:1010D000AE81BF810C913197E01BF0400FEFAC81E6
:1010E000BD810E94F71FAC85BD852C91AA85BB856B
:1010F0001C910E946C1CAC81BD810E94551C86E134
:10110000481A80E0580A269608958CE00E94741EC2
:10111000A881B981EE81FF810E94861FE881F98153
:10112000A8EFB6E00E94F21FE8EFF6E0A881B981CF
:10113000112722270AE033270E94DF1EA881B981E8
:101140000E943020EA2FFB2FAC81BD810C9131979A
:10115000E01BF0400FEFA881B9810E94F71FAA8120
:10116000BB818C918F5F8C938EE2AA81BB819C9115
:10117000A881B9810E947A1EAA85BB852C91A88579
:10118000B9851C910E946C1CA881B9810E94551CD4
:101190008CE0481A80E0580A2296089589E00E945F
:1011A000741EA885B9852C91AE81BF811C910E94C7
:1011B0006C1CA881B981EC81FD810E94DA1FA88195
:1011C000B9810E943020EA2FFB2FAA81BB810C91AC
:1011D0003197E01BF0400FEFA881B9810E94F71F03
:1011E000A881B9810E94551C89E0481A80E0580AFC
:1011F0002296089581E00E94741E8CE00E94741E65
:10120000E885F9850E944F20E2ECF0E40E9454202A
:101210000E94362010F00C940F090C94ED09AC815B
:10122000BD810C91053011F00C942E09A8EFB6E0A9
:10123000AF93BF93E885F9850E944F200E94851DDA
:1012400011E005E0BF91AF910E942A1FE8EFF6E0A0
:10125000A881B9810E94F21F0C949C09043011F0FE
:101260000C944A09A8EFB6E0AF93BF93E885F985DF
:101270000E944F200E94851D11E004E0BF91AF91B4
:101280000E942A1FE8EFF6E0A881B9810E94F21FB0
:101290000C949C09033011F00C946609A8EFB6E099
:1012A000AF93BF93E885F9850E944F200E94851D6A
:1012B00011E003E0BF91AF910E942A1FE8EFF6E032
:1012C000A881B9810E94F21F0C949C09023011F090
:1012D0000C948209A8EFB6E0AF93BF93E885F98537
:1012E0000E944F200E94851D11E002E0BF91AF9146
:1012F0000E942A1FE8EFF6E0A881B9810E94F21F40
:101300000C949C09013011F00C949C09A8EFB6E0F4
:10131000AF93BF93E885F9850E944F200E94851DF9
:1013200011E001E0BF91AF910E942A1FE8EFF6E0C3
:10133000A881B9810E94F21FAE81BF810C91AC815E
:10134000BD814C91040FAE81BF810C93AE81BF81F2
:101350008C918F5F8C93A881B9810E943020AA81E3
:10136000BB818C93AC85BD852C91AA85BB851C91D6
:101370000E946C1CAA81BB814C91AE81BF810C91F3
:10138000041718F011F00C94C7090C94D809AE8119
:10139000BF810C91AA81BB814C91041BAE81BF819E
:1013A0000C93AE81BF810C910E945B1C0C94E909E7
:1013B000A881B9810E943020EA2FFB2FAE81BF8126
:1013C0000C913197E01BF0400FEFA881B9810E948A
:1013D000F71FA881B9810E94551C8DE0481A80E052
:1013E000580A24960895A881B9810C9144E60E9478
:1013F0002020A3E8B0E00C93A881B9810C9144E6C9
:101400000E9420208C93A881B9810C914AE00E940F
:101410002020A2E8B0E00C93A881B9810C914AE0A9
:101420000E942020A1E8B0E08C93089582E00E9401
:10143000741E82E00E94741E81E00E94741E84E08B
:10144000A881B9818C93A881B9814C9100E00417DF
:1014500018F011F00C94670A0AE010E0A881B98135
:101460004D9155270E940B1CAA81BB810D931C93A3
:10147000AE81BF810D911C91AA81BB814D915C9180
:101480000E94F11BAC81BD814D935C93AC81BD8109
:101490008C91A881B981AD90BB24A1E8B0E0AA0DE0
:1014A000BB1D8C93AE81BF810D911C91AA81BB8124
:1014B0004D915C910E94F11BAE81BF810D931C93F5
:1014C000A881B9810E94BB1B10F00C94230A85E00F
:1014D000481A80E0580A2696089584E00E94741EF7
:1014E00084E00E94741E81E00E94741E89E0A8813D
:1014F000B9818C93A881B9814C9100E0041718F050
:1015000011F00C94D00A0AE010E020E030E0A8814D
:10151000B9814C915527662777270E94EB1CAA8139
:10152000BB810D931D932D933D93AE81BF810D9192
:101530001D912D913C91AA81BB814D915D916D9141
:101540007C910E941D1DAC81BD814D935D936D9377
:101550007D93AC81BD818C91A881B981AD90BB2474
:10156000A1E8B0E0AA0DBB1D8C93AE81BF810D91A7
:101570001D912D913C91AA81BB814D915D916D9101
:101580007C910E941D1DAE81BF810D931D932D93F3
:101590003D93A881B9810E94BB1B10F00C947A0A7C
:1015A00089E0481A80E0580A269608958FEF8093C4
:1015B0008D008FEF80938E008FEF80938F008FEFE1
:1015C000809390008FEF809391008FEF8093920033
:1015D0008FEF809393008FEF80939400089580E0C5
:1015E00080938D0080E080938E0080E080938F0058
:1015F00080E08093900080E08093910080E0809371
:10160000920080E08093930080E08093940008959E
:10161000AE98AF98ACE8B0E0AD90BB24ACE8B0E0D9
:10162000AA0DBB1D8C9180958C93ACE8B0E0AD9079
:10163000BB24ACE8B0E0AA0DBB1D8C9180FBABE3F2
:10164000B0E08C9181F98C93ACE8B0E0AD90BB2414
:10165000ACE8B0E0AA0DBB1D8C9181FBABE3B0E020
:101660008C9182F98C93ACE8B0E0AD90BB24ACE8EF
:10167000B0E0AA0DBB1D8C9182FBABE3B0E08C9176
:1016800083F98C93ACE8B0E0AD90BB24ACE8B0E05B
:10169000AA0DBB1D8C9183FBABE3B0E08C9184F968
:1016A0008C93ACE8B0E0AD90BB24ACE8B0E0AA0D00
:1016B000BB1D8C9184FBABE3B0E08C9185F98C93DE
:1016C000ACE8B0E0AD90BB24ACE8B0E0AA0DBB1D27
:1016D0008C9185FBABE3B0E08C9186F98C93ACE800
:1016E000B0E0AD90BB24ACE8B0E0AA0DBB1D8C917E
:1016F00086FBABE3B0E08C9187F98C93ACE8B0E06B
:10170000AD90BB24ACE8B0E0AA0DBB1D8C9187FB6B
:10171000A8E3B0E08C9180F98C93ACE8B0E0AD9098
:10172000BB24ACE8B0E0AA0DBB1D8C9180958C93D6
:10173000ABE8B0E08C9180FBA5E3B0E08C9186F93A
:101740008C93ABE8B0E08C9181FBA5E3B0E08C9189
:1017500087F98C9300918C00023011F00C94B50B3A
:1017600081E080938C000C94BA0BACE8B0E08C91D3
:101770008F5F8C9300918B00013011F00C94C50B9E
:1017800082E080938B000C94C80B81E080938B00E7
:101790000895C0F9A4B0999282F8809088839EA79A
:1017A000C6A184868E8B89E1C7DCAB9CA38C98DEB6
:1017B000AF879DE3C191FFBFF7F0C9C881E00E94E8
:1017C000741E81E00E94741E81E0AA81BB818C930B
:1017D000AC81BD814C91AA81BB810C91041718F09A
:1017E00011F00C940C0CAA81BB81AD90BB24A4E930
:1017F000B0E0AA0DBB1D8C91A881B9818C9331E01A
:10180000A881B9810E94471CAA81BB818C918F5FFE
:101810008C9310F40C94E80B5E990C94110C0C94BE
:101820000C0C5E9A82E0481A80E0580A24960895CB
:1018300081E00E94741E81E00E94741E81E0AA81F2
:10184000BB818C93AE81BF814C91AA81BB810C91ED
:10185000041718F011F00C94790C709160007E7FE1
:1018600070936000AC81BD818D919C91A5E1B1E048
:101870008D939C9370916000716070936000A0E6FE
:10188000B0E08C9180FB16F00C94510C0E94301C3F
:10189000082F013011F00C944F0C0C94510C0C9447
:1018A0003F0CA0E6B0E08C9180FB16F40C94600C29
:1018B00080E0A885B9858C930C947D0C0C94710CF8
:1018C00031E0A881B9810E942B1CA881B9818C913B
:1018D000AA81BB81AD90BB24A4EDB0E0AA0DBB1DD5
:1018E0008C93AA81BB818C918F5F8C9310F40C94A4
:1018F000220C81E0A885B9858C9382E0481A80E0AB
:10190000580A24960895A0E6B0E08C9180FB16F06A
:101910000C949D0CA5E1B1E00E94BF1BA5E1B1E0D4
:101920000D911C91003050E0150711F00C949D0CA6
:10193000709160007E7F7093600008950091770041
:10194000043011F00C94A50CFFCF0091770000300B
:1019500011F40C94AD0C0E942F0E85B390E18927F1
:1019600085BB81E0809378000E948E0E0E942B0F31
:10197000089500917700043011F00C94C00CFFCF53
:1019800000917700003011F40C94C80C0E942F0EC7
:1019900085B398E0892785BB82E0809378000E9418
:1019A0008E0E0E942B0F089500917700043011F0E5
:1019B0000C94DB0CFFCF00917700003011F40C94F5
:1019C000E30C0E942F0E85B394E0892785BB83E04A
:1019D000809378000E948E0E0E942B0F0895009134
:1019E0007700043011F00C94F60CFFCF00917700D3
:1019F000003011F40C94FE0C0E942F0E85B392E07F
:101A0000892785BB84E0809378000E948E0E0E9417
:101A10002B0F089500917700043011F00C94110DF4
:101A2000FFCF00917700003011F40C94190D0E9443
:101A30002F0E85B391E0892785BB85E080937800E0
:101A40000E948E0E0E942B0F0895009177000430A3
:101A500011F00C942C0DFFCF00917700043011F49D
:101A60000C94340D0E94350E0895009177000430D7
:101A700011F00C943C0DFFCF00917700033011F46E
:101A80000C94460D0E947F0E0C94550D009177002A
:101A9000003011F40C944E0D0E942F0E87E08093BD
:101AA00078000E948E0E0E942B0F089500917700FF
:101AB000043011F00C945D0DFFCF009177000230DF
:101AC00011F40C94670D0E94850E0C94760D009114
:101AD0007700003011F40C946F0D0E942F0E88E0F7
:101AE000809378000E948E0E0E942B0F0895009123
:101AF0007700043011F00C947E0DFFCF0091770039
:101B0000003011F40C94860D0E942F0E89E0809312
:101B100078000E948E0E0E942B0F0895009177008E
:101B2000043011F00C94950DFFCF00917700003038
:101B300011F40C949D0D0E942F0E8AE08093780082
:101B40000E948E0E0E942B0F0895009177000430A2
:101B500011F00C94AC0DFFCF00917700003011F420
:101B60000C94B40D0E942F0E8BE0809378000E949D
:101B70008E0E0E942B0F089500917700043011F013
:101B80000C94C30DFFCF00917700003011F40C943A
:101B9000CB0D0E942F0E8CE0809378000E948E0E59
:101BA0000E942B0F089500917700043011F00C94DF
:101BB000DA0DFFCF00917700003011F40C94E20DA4
:101BC0000E942F0E8DE0809378000E948E0E0E945E
:101BD0002B0F089500917700043011F00C94F10D53
:101BE000FFCF00917700003011F40C94F90D0E94A2
:101BF0002F0E8EE0809378000E948E0E0E942B0F95
:101C0000089500917700043011F00C94080EFFCF76
:101C100000917700003011F40C94100E0E942F0EEA
:101C20008FE0809378000E948E0E0E942B0F089503
:101C300000917700043011F00C941F0EFFCF00913B
:101C40007700003011F40C94270E0E942F0E80E1D3
:101C5000809378000E948E0E0E942B0F089580E0E2
:101C6000809377000E940E0F089581E0D2018C933B
:101C700081E00E94741E81E0D2018C9381E00E9479
:101C8000741ED201E6ECF0E40E94BD1E81E10E94C8
:101C9000741E0E944304269683E10E94701E82E017
:101CA000D2018C9381E00E94741E81E0D2018C935A
:101CB00081E00E94741ED201E8EDF0E40E94BD1E96
:101CC00081E10E94741E0E944304269683E10E94D3
:101CD000701E9FB7F89481B5886181BD877E81BDF4
:101CE0009FBF80ED97E00E94761D81B5886081BD21
:101CF00084E08093770080E080936800089583E01B
:101D0000809377000E940E0F089582E08093770001
:101D100080E1809368000E940E0F0895EAEEF0E4DF
:101D20000E94401CA8EFB6E0E8E7F0E00E94901F98
:101D30000E94381C009178000A3010F00C94A40E18
:101D4000EEEEF0E40E94401CE0EFF0E40E94401C44
:101D50000E944C1C0895A0E1B0E0BA93AA9381E0E0
:101D6000D2018C9381E00E94741E8AE090E0D2013F
:101D70008D939C9382E00E94741E0E94180C2696FC
:101D800083E00E94701E003011F00C94C90E0C9478
:101D9000080F00916800003111F00C94DC0E8FEBFD
:101DA00011E00E94761CEEEFF0E40E94601C81E0DE
:101DB000809368000C94E10EA8E6B0E08C918F5FF0
:101DC0008C938091D50080936100A1E6B0E08C9166
:101DD000A3E7B0E08D9388278C9382E0D2018C93A7
:101DE00081E00E94741E80916800D2018C9381E092
:101DF0000E94741EE3E7F0E0D2010E94F21F82E02D
:101E00000E94741E0E944304269684E00E94701E65
:101E100008950E940E0F0E942B0F089500917700E5
:101E2000003011F00C94180F0E94480F0C942A0FE8
:101E300000917700033011F00C94220F0E949A0F4A
:101E40000C942A0F00917700023011F00C942A0FA5
:101E50000E943210089500917700003011F00C9428
:101E6000350F0E947D0F0C94470F009177000330CF
:101E700011F00C943F0F0E94CF0F0C94470F00916C
:101E80007700023011F00C94470F0E9467100895FC
:101E900081E0D2018C9381E00E94741E81E0D20126
:101EA0008C9381E00E94741ED201E0E1F1E40E9473
:101EB000BD1E81E10E94741E0E944304269683E1A8
:101EC0000E94701E82E0D2018C9381E00E94741EF9
:101ED00081E0D2018C9381E00E94741ED201E2E283
:101EE000F1E40E94BD1E81E10E94741E0E94430421
:101EF000269683E10E94701E089582E0D2018C93A1
:101F000081E00E94741E84E0D2018C9381E00E94E3
:101F1000741EA8E7B0E0BA93AA9382E0D2018C9332
:101F200081E00E94741E0E945004289683E00E9463
:101F3000701E089581E0D2018C9381E00E94741E8E
:101F400081E0D2018C9381E00E94741ED201E4E30F
:101F5000F1E40E94BD1E81E10E94741E0E944304B0
:101F6000269683E10E94701E82E0D2018C9381E06C
:101F70000E94741E81E0D2018C9381E00E94741E45
:101F8000D201E6E4F1E40E94BD1E81E10E94741ECC
:101F90000E944304269683E10E94701E089507B1B3
:101FA000007E07B90E94C31EA2E6B0E08D939C9309
:101FB000A2E6B0E08D919C91A4E6B0E08D939D9354
:101FC00088278D938C93A4E6B0E00D911D912D91FF
:101FD0003C9142E350E060E070E00E949A1EA4E66B
:101FE000B0E00D931D932D933D93A4E6B0E00D91C9
:101FF0001D912D913C914FEF53E060E070E00E9405
:102000001D1DA4E6B0E04D935D936D937D93A4E612
:10201000B0E08D919C91A2E6B0E08D939C9382E01C
:10202000D2018C9381E00E94741E8CE0D2018C93CB
:1020300081E00E94741EA2E6B0E0BA93AA9382E007
:10204000D2018C9381E00E94741E81E0D2018C93B6
:1020500081E00E94741E0E94F7062A9684E00E9486
:10206000701E089581E0D2018C9381E00E94741E5D
:1020700081E0D2018C9381E00E94741ED201E8E5D8
:10208000F1E40E94BD1E81E10E94741E0E9443047F
:10209000269683E10E94701E82E0D2018C9381E03B
:1020A0000E94741E81E0D2018C9381E00E94741E14
:1020B000D201EEEFF0E40E94BD1E81E10E94741E89
:1020C0000E944304269683E10E94701E089508959D
:1020D000AD9A82E390E00E94761DAD9880E590E095
:1020E0000E94761DAD9A82E390E00E94761DAD9825
:1020F00008959FB7F89481B5886181BD877E81BDC1
:102100009FBFAD9A84E690E00E94761DAD9884E66C
:1021100090E00E94761DAD9A84E690E00E94761DC4
:10212000AD9881B5886081BD0895709160007F7B16
:102130007093600084E690E0A5E7B0E08D939C93F7
:1021400070916000706470936000089580916800E1
:10215000D2018C9381E00E94741E0E94F3092296A2
:1021600081E00E94701EE2E9F7E1A1E8B0E08C9105
:102170009927ADE8B0E00E94DC1EE2E9F7E1A2E8B1
:10218000B0E08C919927AEE8B0E00E94DC1EE2E955
:10219000F7E1A3E8B0E08C919927AFE8B0E00E94A6
:1021A000DC1E00916800033610F00C94DE10A8E6E7
:1021B000B0E08C918F5F8C930C94DF10FFCF08956B
:1021C0000E946810EAE6F1E40E94401C0E944C1C48
:1021D00088EC90E00E94761DE8E7F1E40E94401C44
:1021E0000E944C1C88EC90E00E94761DE4E9F1E42A
:1021F0000E94401C0E944C1C88EC90E00E94761DBE
:10220000E4EAF1E40E94401C0E944C1C88EC90E03F
:102210000E94761D81E0D2018C9381E00E94741EA1
:1022200081E0D2018C9381E00E94741ED201EEEE17
:10223000F0E40E94BD1E82E00E94741E0E944304CE
:10224000269684E00E94701E82E0D2018C9381E089
:102250000E94741E81E0D2018C9381E00E94741E62
:10226000D201ECEBF1E40E94BD1E82E00E94741EDC
:102270000E944304269684E00E94701E82E390E050
:102280000E94761D81E0D2018C9381E00E94741E31
:1022900082E0D2018C9381E00E94741ED201EEEBA9
:1022A000F1E40E94BD1E82E00E94741E0E9443045D
:1022B000269684E00E94701E82E0D2018C9381E019
:1022C0000E94741E82E0D2018C9381E00E94741EF1
:1022D000D201ECEBF1E40E94BD1E82E00E94741E6C
:1022E0000E944304269684E00E94701E82E390E0E0
:1022F0000E94761D81E0D2018C9381E00E94741EC1
:1023000083E0D2018C9381E00E94741ED201E0EC44
:10231000F1E40E94BD1E82E00E94741E0E944304EC
:10232000269684E00E94701E82E0D2018C9381E0A8
:102330000E94741E83E0D2018C9381E00E94741E7F
:10234000D201ECEBF1E40E94BD1E82E00E94741EFB
:102350000E944304269684E00E94701E82E390E06F
:102360000E94761D81E0D2018C9381E00E94741E50
:1023700084E0D2018C9381E00E94741ED201E2ECD1
:10238000F1E40E94BD1E82E00E94741E0E9443047C
:10239000269684E00E94701E82E0D2018C9381E038
:1023A0000E94741E84E0D2018C9381E00E94741E0E
:1023B000D201ECEBF1E40E94BD1E82E00E94741E8B
:1023C0000E944304269684E00E94701E82E390E0FF
:1023D0000E94761D81E0D2018C9381E00E94741EE0
:1023E00085E0D2018C9381E00E94741ED201E4EC5E
:1023F000F1E40E94BD1E82E00E94741E0E9443040C
:10240000269684E00E94701E82E0D2018C9381E0C7
:102410000E94741E85E0D2018C9381E00E94741E9C
:10242000D201ECEBF1E40E94BD1E82E00E94741E1A
:102430000E944304269684E00E94701E82E390E08E
:102440000E94761D81E0D2018C9381E00E94741E6F
:1024500086E0D2018C9381E00E94741ED201E6ECEA
:10246000F1E40E94BD1E82E00E94741E0E9443049B
:10247000269684E00E94701E82E0D2018C9381E057
:102480000E94741E86E0D2018C9381E00E94741E2B
:10249000D201ECEBF1E40E94BD1E82E00E94741EAA
:1024A0000E944304269684E00E94701E82E390E01E
:1024B0000E94761D81E0D2018C9381E00E94741EFF
:1024C00087E0D2018C9381E00E94741ED201EEEE6F
:1024D000F0E40E94BD1E82E00E94741E0E9443042C
:1024E000269684E00E94701E82E0D2018C9381E0E7
:1024F0000E94741E87E0D2018C9381E00E94741EBA
:10250000D201ECEBF1E40E94BD1E82E00E94741E39
:102510000E944304269684E00E94701E82E390E0AD
:102520000E94761D81E0D2018C9381E00E94741E8E
:1025300088E0D2018C9381E00E94741ED201E8EC05
:10254000F1E40E94BD1E82E00E94741E0E944304BA
:10255000269684E00E94701E82E0D2018C9381E076
:102560000E94741E88E0D2018C9381E00E94741E48
:10257000D201ECEBF1E40E94BD1E82E00E94741EC9
:102580000E944304269684E00E94701E82E390E03D
:102590000E94761D81E0D2018C9381E00E94741E1E
:1025A00089E0D2018C9381E00E94741ED201EAEC92
:1025B000F1E40E94BD1E82E00E94741E0E9443044A
:1025C000269684E00E94701E82E0D2018C9381E006
:1025D0000E94741E89E0D2018C9381E00E94741ED7
:1025E000D201ECEBF1E40E94BD1E82E00E94741E59
:1025F0000E944304269684E00E94701E82E390E0CD
:102600000E94761D81E0D2018C9381E00E94741EAD
:102610008AE0D2018C9381E00E94741ED201ECEC1E
:10262000F1E40E94BD1E82E00E94741E0E944304D9
:10263000269684E00E94701E82E0D2018C9381E095
:102640000E94741E8AE0D2018C9381E00E94741E65
:10265000D201ECEBF1E40E94BD1E82E00E94741EE8
:102660000E944304269684E00E94701E82E390E05C
:102670000E94761D81E0D2018C9381E00E94741E3D
:102680008BE0D2018C9381E00E94741ED201EEEEA9
:10269000F0E40E94BD1E82E00E94741E0E9443046A
:1026A000269684E00E94701E82E0D2018C9381E025
:1026B0000E94741E8BE0D2018C9381E00E94741EF4
:1026C000D201ECEBF1E40E94BD1E82E00E94741E78
:1026D0000E944304269684E00E94701E82E390E0EC
:1026E0000E94761D81E0D2018C9381E00E94741ECD
:1026F0008CE0D2018C9381E00E94741ED201EAEC3E
:10270000F1E40E94BD1E82E00E94741E0E944304F8
:10271000269684E00E94701E82E0D2018C9381E0B4
:102720000E94741E8CE0D2018C9381E00E94741E82
:10273000D201ECEBF1E40E94BD1E82E00E94741E07
:102740000E944304269684E00E94701E82E390E07B
:102750000E94761D81E0D2018C9381E00E94741E5C
:102760008DE0D2018C9381E00E94741ED201EEECC8
:10277000F1E40E94BD1E82E00E94741E0E94430488
:10278000269684E00E94701E82E0D2018C9381E044
:102790000E94741E8DE0D2018C9381E00E94741E11
:1027A000D201ECEBF1E40E94BD1E82E00E94741E97
:1027B0000E944304269684E00E94701E82E390E00B
:1027C0000E94761D81E0D2018C9381E00E94741EEC
:1027D0008EE0D2018C9381E00E94741ED201E0ED64
:1027E000F1E40E94BD1E82E00E94741E0E94430418
:1027F000269684E00E94701E82E0D2018C9381E0D4
:102800000E94741E8EE0D2018C9381E00E94741E9F
:10281000D201ECEBF1E40E94BD1E82E00E94741E26
:102820000E944304269684E00E94701E82E390E09A
:102830000E94761D81E0D2018C9381E00E94741E7B
:102840008FE0D2018C9381E00E94741ED201EEEEE3
:10285000F0E40E94BD1E82E00E94741E0E944304A8
:10286000269684E00E94701E82E0D2018C9381E063
:102870000E94741E8FE0D2018C9381E00E94741E2E
:10288000D201ECEBF1E40E94BD1E82E00E94741EB6
:102890000E944304269684E00E94701E82E390E02A
:1028A0000E94761D81E0D2018C9381E00E94741E0B
:1028B00080E1D2018C9381E00E94741ED201EEEE81
:1028C000F0E40E94BD1E82E00E94741E0E94430438
:1028D000269684E00E94701E82E0D2018C9381E0F3
:1028E0000E94741E80E1D2018C9381E00E94741ECC
:1028F000D201ECEBF1E40E94BD1E82E00E94741E46
:102900000E944304269684E00E94701E82E390E0B9
:102910000E94761D88EE93E00E94761D81E0D20130
:102920008C9381E00E94741E81E0D2018C9381E03F
:102930000E94741ED201EEEEF0E40E94BD1E82E001
:102940000E94741E0E944304269684E00E94701E1A
:1029500082E0D2018C9381E00E94741E81E0D2015A
:102960008C9381E00E94741ED201EEEEF0E40E948E
:10297000BD1E82E00E94741E0E944304269684E0DD
:102980000E94701E82E390E00E94761D81E0D201D9
:102990008C9381E00E94741E82E0D2018C9381E0CE
:1029A0000E94741ED201EEEEF0E40E94BD1E82E091
:1029B0000E94741E0E944304269684E00E94701EAA
:1029C00082E0D2018C9381E00E94741E82E0D201E9
:1029D0008C9381E00E94741ED201EEEEF0E40E941E
:1029E000BD1E82E00E94741E0E944304269684E06D
:1029F0000E94701E82E390E00E94761D81E0D20169
:102A00008C9381E00E94741E83E0D2018C9381E05C
:102A10000E94741ED201EEEEF0E40E94BD1E82E020
:102A20000E94741E0E944304269684E00E94701E39
:102A300082E0D2018C9381E00E94741E83E0D20177
:102A40008C9381E00E94741ED201EEEEF0E40E94AD
:102A5000BD1E82E00E94741E0E944304269684E0FC
:102A60000E94701E82E390E00E94761D81E0D201F8
:102A70008C9381E00E94741E84E0D2018C9381E0EB
:102A80000E94741ED201EEEEF0E40E94BD1E82E0B0
:102A90000E94741E0E944304269684E00E94701EC9
:102AA00082E0D2018C9381E00E94741E84E0D20106
:102AB0008C9381E00E94741ED201EEEEF0E40E943D
:102AC000BD1E82E00E94741E0E944304269684E08C
:102AD0000E94701E82E390E00E94761D8FE715E051
:102AE0000E94761C82E00E94C41C82E0D2018C937A
:102AF00081E00E94741E85E0D2018C9381E00E94E7
:102B0000741ED201EEEEF0E40E94BD1E82E00E942F
:102B1000741E0E944304269684E00E94701E82E385
:102B200090E00E94761D8FE716E00E94761C85E0FB
:102B30000E94C41C8FEB16E00E94761C86E00E9467
:102B4000C41C82E390E00E94761D81E0D2018C9348
:102B500081E00E94741E87E0D2018C9381E00E9484
:102B6000741ED201EEEEF0E40E94BD1E82E00E94CF
:102B7000741E0E944304269684E00E94701E82E028
:102B8000D2018C9381E00E94741E87E0D2018C9365
:102B900081E00E94741ED201E2EDF1E40E94BD1EAC
:102BA00082E00E94741E0E944304269684E00E94E4
:102BB000701E82E390E00E94761D81E0D2018C932A
:102BC00081E00E94741E88E0D2018C9381E00E9413
:102BD000741ED201EEEEF0E40E94BD1E82E00E945F
:102BE000741E0E944304269684E00E94701E82E0B8
:102BF000D2018C9381E00E94741E88E0D2018C93F4
:102C000081E00E94741ED201E4EDF1E40E94BD1E39
:102C100082E00E94741E0E944304269684E00E9473
:102C2000701E82E390E00E94761D81E0D2018C93B9
:102C300081E00E94741E89E0D2018C9381E00E94A1
:102C4000741ED201EEEEF0E40E94BD1E82E00E94EE
:102C5000741E0E944304269684E00E94701E82E047
:102C6000D2018C9381E00E94741E89E0D2018C9382
:102C700081E00E94741ED201EEEEF0E40E94BD1EBF
:102C800082E00E94741E0E944304269684E00E9403
:102C9000701E82E390E00E94761D81E0D2018C9349
:102CA00081E00E94741E8AE0D2018C9381E00E9430
:102CB000741ED201EEEEF0E40E94BD1E82E00E947E
:102CC000741E0E944304269684E00E94701E82E0D7
:102CD000D2018C9381E00E94741E8AE0D2018C9311
:102CE00081E00E94741ED201E6EDF1E40E94BD1E57
:102CF00082E00E94741E0E944304269684E00E9493
:102D0000701E82E390E00E94761D81E0D2018C93D8
:102D100081E00E94741E8BE0D2018C9381E00E94BE
:102D2000741ED201EEEEF0E40E94BD1E82E00E940D
:102D3000741E0E944304269684E00E94701E82E066
:102D4000D2018C9381E00E94741E8BE0D2018C939F
:102D500081E00E94741ED201E8EDF1E40E94BD1EE4
:102D600082E00E94741E0E944304269684E00E9422
:102D7000701E82E390E00E94761D81E0D2018C9368
:102D800081E00E94741E8CE0D2018C9381E00E944D
:102D9000741ED201EEEEF0E40E94BD1E82E00E949D
:102DA000741E0E944304269684E00E94701E82E0F6
:102DB000D2018C9381E00E94741E8CE0D2018C932E
:102DC00081E00E94741ED201EAEDF1E40E94BD1E72
:102DD00082E00E94741E0E944304269684E00E94B2
:102DE000701E82E390E00E94761D81E0D2018C93F8
:102DF00081E00E94741E8DE0D2018C9381E00E94DC
:102E0000741ED201EEEEF0E40E94BD1E82E00E942C
:102E1000741E0E944304269684E00E94701E82E085
:102E2000D2018C9381E00E94741E8DE0D2018C93BC
:102E300081E00E94741ED201E8EDF1E40E94BD1E03
:102E400082E00E94741E0E944304269684E00E9441
:102E5000701E82E390E00E94761D81E0D2018C9387
:102E600081E00E94741E8EE0D2018C9381E00E946A
:102E7000741ED201EEEEF0E40E94BD1E82E00E94BC
:102E8000741E0E944304269684E00E94701E82E015
:102E9000D2018C9381E00E94741E8EE0D2018C934B
:102EA00081E00E94741ED201EEEEF0E40E94BD1E8D
:102EB00082E00E94741E0E944304269684E00E94D1
:102EC000701E82E390E00E94761D81E0D2018C9317
:102ED00081E00E94741E8FE0D2018C9381E00E94F9
:102EE000741ED201EEEEF0E40E94BD1E82E00E944C
:102EF000741E0E944304269684E00E94701E82E0A5
:102F0000D2018C9381E00E94741E8FE0D2018C93D9
:102F100081E00E94741ED201EEEEF0E40E94BD1E1C
:102F200082E00E94741E0E944304269684E00E9460
:102F3000701E82E390E00E94761D81E0D2018C93A6
:102F400081E00E94741E80E1D2018C9381E00E9496
:102F5000741ED201EEEEF0E40E94BD1E82E00E94DB
:102F6000741E0E944304269684E00E94701E82E034
:102F7000D2018C9381E00E94741E80E1D2018C9377
:102F800081E00E94741ED201EEEEF0E40E94BD1EAC
:102F900082E00E94741E0E944304269684E00E94F0
:102FA000701E82E390E00E94761D80ED97E00E9403
:102FB000761D81E0D2018C9381E00E94741E81E035
:102FC000D2018C9381E00E94741ED201EEEEF0E4F7
:102FD0000E94BD1E82E00E94741E0E944304269639
:102FE00084E00E94701E82E0D2018C9381E00E94F6
:102FF000741E81E0D2018C9381E00E94741ED20184
:10300000EEEEF0E40E94BD1E82E00E94741E0E945B
:103010004304269684E00E94701E82E390E00E94A2
:10302000761D81E0D2018C9381E00E94741E82E0C3
:10303000D2018C9381E00E94741ED201E0ECF1E495
:103040000E94BD1E82E00E94741E0E9443042696C8
:1030500084E00E94701E82E0D2018C9381E00E9485
:10306000741E82E0D2018C9381E00E94741ED20112
:10307000E4ECF1E40E94BD1E82E00E94741E0E94F6
:103080004304269684E00E94701E82E390E00E9432
:10309000761D81E0D2018C9381E00E94741E83E052
:1030A000D2018C9381E00E94741ED201ECEDF1E418
:1030B0000E94BD1E82E00E94741E0E944304269658
:1030C00084E00E94701E82E0D2018C9381E00E9415
:1030D000741E83E0D2018C9381E00E94741ED201A1
:1030E000EEEDF1E40E94BD1E82E00E94741E0E947B
:1030F0004304269684E00E94701E82E390E00E94C2
:10310000761D81E0D2018C9381E00E94741E84E0E0
:10311000D2018C9381E00E94741ED201E0EEF1E4B2
:103120000E94BD1E82E00E94741E0E9443042696E7
:1031300084E00E94701E82E0D2018C9381E00E94A4
:10314000741E84E0D2018C9381E00E94741ED2012F
:10315000E2EEF1E40E94BD1E82E00E94741E0E9415
:103160004304269684E00E94701E82E390E00E9451
:10317000761D81E0D2018C9381E00E94741E85E06F
:10318000D2018C9381E00E94741ED201E4ECF1E440
:103190000E94BD1E82E00E94741E0E944304269677
:1031A00084E00E94701E82E0D2018C9381E00E9434
:1031B000741E85E0D2018C9381E00E94741ED201BE
:1031C000E2EDF1E40E94BD1E82E00E94741E0E94A6
:1031D0004304269684E00E94701E82E390E00E94E1
:1031E000761D81E0D2018C9381E00E94741E86E0FE
:1031F000D2018C9381E00E94741ED201E4EEF1E4CE
:103200000E94BD1E82E00E94741E0E944304269606
:1032100084E00E94701E82E0D2018C9381E00E94C3
:10322000741E86E0D2018C9381E00E94741ED2014C
:10323000E4EDF1E40E94BD1E82E00E94741E0E9433
:103240004304269684E00E94701E82E390E00E9470
:10325000761D81E0D2018C9381E00E94741E87E08C
:10326000D2018C9381E00E94741ED201EEEEF0E454
:103270000E94BD1E82E00E94741E0E944304269696
:1032800084E00E94701E82E0D2018C9381E00E9453
:10329000741E87E0D2018C9381E00E94741ED201DB
:1032A000EEEEF0E40E94BD1E82E00E94741E0E94B9
:1032B0004304269684E00E94701E82E390E00E9400
:1032C000761D81E0D2018C9381E00E94741E88E01B
:1032D000D2018C9381E00E94741ED201E0ECF1E4F3
:1032E0000E94BD1E82E00E94741E0E944304269626
:1032F00084E00E94701E82E0D2018C9381E00E94E3
:10330000741E88E0D2018C9381E00E94741ED20169
:10331000E6EDF1E40E94BD1E82E00E94741E0E9450
:103320004304269684E00E94701E82E390E00E948F
:10333000761D81E0D2018C9381E00E94741E89E0A9
:10334000D2018C9381E00E94741ED201E6EEF1E47A
:103350000E94BD1E82E00E94741E0E9443042696B5
:1033600084E00E94701E82E0D2018C9381E00E9472
:10337000741E89E0D2018C9381E00E94741ED201F8
:10338000E8EDF1E40E94BD1E82E00E94741E0E94DE
:103390004304269684E00E94701E82E390E00E941F
:1033A000761D81E0D2018C9381E00E94741E8AE038
:1033B000D2018C9381E00E94741ED201E2ECF1E410
:1033C0000E94BD1E82E00E94741E0E944304269645
:1033D00084E00E94701E82E0D2018C9381E00E9402
:1033E000741E8AE0D2018C9381E00E94741ED20187
:1033F000EAEDF1E40E94BD1E82E00E94741E0E946C
:103400004304269684E00E94701E82E390E00E94AE
:10341000761D81E0D2018C9381E00E94741E8BE0C6
:10342000D2018C9381E00E94741ED201EEEEF0E492
:103430000E94BD1E82E00E94741E0E9443042696D4
:1034400084E00E94701E82E0D2018C9381E00E9491
:10345000741E8BE0D2018C9381E00E94741ED20115
:10346000E8EDF1E40E94BD1E82E00E94741E0E94FD
:103470004304269684E00E94701E82E390E00E943E
:10348000761D81E0D2018C9381E00E94741E8CE055
:10349000D2018C9381E00E94741ED201E8EEF1E427
:1034A0000E94BD1E82E00E94741E0E944304269664
:1034B00084E00E94701E82E0D2018C9381E00E9421
:1034C000741E8CE0D2018C9381E00E94741ED201A4
:1034D000EEEEF0E40E94BD1E82E00E94741E0E9487
:1034E0004304269684E00E94701E82E390E00E94CE
:1034F000761D81E0D2018C9381E00E94741E8DE0E4
:10350000D2018C9381E00E94741ED201E8EDF1E4B7
:103510000E94BD1E82E00E94741E0E9443042696F3
:1035200084E00E94701E82E0D2018C9381E00E94B0
:10353000741E8DE0D2018C9381E00E94741ED20132
:10354000EAEEF1E40E94BD1E82E00E94741E0E9419
:103550004304269684E00E94701E82E390E00E945D
:10356000761D81E0D2018C9381E00E94741E8EE072
:10357000D2018C9381E00E94741ED201EEEDF1E441
:103580000E94BD1E82E00E94741E0E944304269683
:1035900084E00E94701E82E0D2018C9381E00E9440
:1035A000741E8EE0D2018C9381E00E94741ED201C1
:1035B000E8EDF1E40E94BD1E82E00E94741E0E94AC
:1035C0004304269684E00E94701E82E390E00E94ED
:1035D000761D81E0D2018C9381E00E94741E8FE001
:1035E000D2018C9381E00E94741ED201EEEEF0E4D1
:1035F0000E94BD1E82E00E94741E0E944304269613
:1036000084E00E94701E82E0D2018C9381E00E94CF
:10361000741E8FE0D2018C9381E00E94741ED2014F
:10362000EEEDF1E40E94BD1E82E00E94741E0E9435
:103630004304269684E00E94701E82E390E00E947C
:10364000761D81E0D2018C9381E00E94741E80E19E
:10365000D2018C9381E00E94741ED201EEEEF0E460
:103660000E94BD1E82E00E94741E0E9443042696A2
:1036700084E00E94701E82E0D2018C9381E00E945F
:10368000741E80E1D2018C9381E00E94741ED201ED
:10369000EEEEF0E40E94BD1E82E00E94741E0E94C5
:1036A0004304269684E00E94701E82E390E00E940C
:1036B000761D80ED97E00E94761D08950F921F926F
:1036C0002F923F924F925F927F92AF92BF920F9351
:1036D0001F932F933F934F935F936F937F938F939A
:1036E0009F93AF93BF93CF93DF93EF93FF938FB7E6
:1036F0008F930E94F0030E94830C009177000430A6
:1037000011F00C94851B0E94080BA0E6B0E08C9190
:1037100086FB16F00C949F1BA5E7B0E00E94BF1B30
:10372000A5E7B0E00D911C91003050E0150711F0B5
:103730000C949F1B709160007F7B709360008F9151
:103740008FBFFF91EF91DF91CF91BF91AF919F918B
:103750008F917F916F915F914F913F912F911F9129
:103760000F91BF90AF907F905F904F903F902F90C0
:103770001F900F9018958C9181508C930895ED9126
:10378000FC91E150F040FC93EE93089580E290307C
:1037900019F08D939A95E9F79C93089500FC10D049
:1037A000089503D01ED001F8F9CF0024E89457FF04
:1037B00002C009D0689400F80BD010F801240895D5
:1037C00002D009D00895509540954F5F5F4F0895FE
:1037D000E89417FF0895009510950F5F1F4F6894A8
:1037E0000895352F242FE894452B11F468940895FB
:1037F000512F402F0027112780E1440F551F001F34
:10380000111F021B130B416018F4020F131F4E7F90
:103810008A9599F7089514D081F0002E112E415009
:1038200050400ED009F408954F935F93402D512DD1
:103830000E94901E5F914F91F2CF01E011270895F1
:103840008827842B852B08958F938D918823E9F702
:1038500011978F91089508D08D933A95E1F70895C7
:1038600081E05F9B882708955F9BFECF8CB1089510
:10387000A8EFB6E08D91882311F011D0FBCF089509
:103880000E94CC1E802D11F00AD0FACF08958D91A0
:1038900006D03A95E1F708958DE001D08AE05D9B6E
:1038A000FECF8CB90895A8EFB6E08D91882311F072
:1038B0006BD0FBCF089580E267D00A95E1F70895B9
:1038C0000E94CC1E802D11F05FD0FACF089581E0C8
:1038D00061D00FD080E85EC08FE7213039F08FEBE8
:1038E000223021F08FE8233009F08FEC810F0C9407
:1038F000CA1C83E09927FAC08AEF90E00E94761DE7
:10390000D69AD59AD49AD39AD29AD19AD99885E050
:1039100090E00E94761DDA98DE98DD98DC9ADB9ABA
:10392000DA9AEF93FF93ECE8F1E00E946A1DFF91B1
:10393000EF91DA98D8D0DA9AEF93FF93ECE8F1E0C0
:103940000E946A1DFF91EF91DA98CDD0DA9AEF9339
:10395000FF93ECE8F1E00E946A1DFF91EF91DA9885
:10396000C2D0DB98DA9AEF93FF93ECE8F1E00E9483
:103970006A1DFF91EF91DA98B6D088E20BD08EE005
:1039800009D086E007D00895D99A829505D004D051
:10399000AAD00895D998F9CF859510F4DB9A01C083
:1039A000DB98859510F4DC9A01C0DC98859510F4BD
:1039B000DD9A01C0DD98859510F4DE9A01C0DE988D
:1039C000DA9AEF93FF93ECE8F1E00E946A1DFF9111
:1039D000EF91DA98089520D0D1F0002E112E222EEA
:1039E000332E415050406040704016D009F4089585
:1039F0004F935F936F937F93402D512D622D732DC5
:103A00000E949A1E7F916F915F914F91EACF01E0E2
:103A100011272227332708958827842B852B862B6F
:103A2000872B8030089500FC05D0089530D005D054
:103A300001F8F9CF37D03FD00895842F952FA62FC6
:103A4000B72FE894452B462B472B11F46894089523
:103A5000402F512F622F732F002711272227332742
:103A6000F0E2440F551F661F771F001F111F221F12
:103A7000331F081B190B2A0B3B0B416028F4080F5E
:103A8000191F2A1F3B1F4E7FFA9559F708950024EE
:103A9000E89477FF02C006D0689400F809D010F8C7
:103AA0000124089512D04F5F5F4F6F4F7F4F0895ED
:103AB000E89437FF089500951095209530950F5F95
:103AC0001F4F2F4F3F4F6894089540955095609534
:103AD000709508953197F1F70895689462F8089504
:103AE000E89462F8089581E090E000C0EF93FF93BE
:103AF000EE27E82BE92B31F0E0EAFFE03197F1F710
:103B00000197D1F7FF91EF9108958DE207FD8D9315
:103B10008F2D881F802F881F8F57082F6894F7F8E4
:103B2000802F87FF15C080958395082F80E38D93A4
:103B30008EE28D93802F815228F080E38D93992718
:103B40009C93089544270A95802F09F196D01FC0B1
:103B5000805230F09EE49D9381E48D939D93EFCF4E
:103B60004427DF92EF92FF920F938FE1801B11F0B9
:103B7000082F83D089D09EE29D930F91FF90EF9004
:103B8000DF9044270395003209F4D7CF2BD03F9321
:103B9000EAE1FCE338E12F2D1E2D0D2DFF24EE244C
:103BA000DD244427000F111F221FA8F42F923F92FB
:103BB0000E94CC1E102C0E94CC1E202C0E94CC1ED9
:103BC000302C0E94CC1E3197410DD21CE31CF01CFE
:103BD0003F902F9001C0339631963A9519F73F9157
:103BE00007D0AFCFDD0CEE1CFF1C0A95D9F7089566
:103BF000002719E058D08F93802B11F0039501C056
:103C00008F911A95B9F7802F882309F496CF8F9159
:103C1000805D8D930A95D9F792CF0065CD1D80B256
:103C2000E60E40597307A0ACB90350D6DC01286BEF
:103C3000EE0094357700CA9A3B0065CD1D00B2E6D0
:103C40000E0059730700ACB90300D6DC01006BEE1F
:103C50000000357700009A3B0000CD1D0000E60E05
:103C6000000073070000B9030000DC010000EE0053
:103C70000000770000003B000000F694E794D79422
:103C800047950A95D1F7089500270DD08F93039596
:103C90008F2D8E298D29842BC1F78F91805D8D9377
:103CA0000A95D9F74CCF1F930F93002710E2440FCA
:103CB000DD1CEE1CFF1C001F802F9AE0890B10F00A
:103CC000082F43951A9599F7802F0F911F9108950A
:103CD00001911191219130810895481A590A08954E
:103CE000481A8827580A089599275A924A92480EE6
:103CF000591E08959D010D910030E9F7FD011196BF
:103D00002E173F0719F012911E93FACF01E0091701
:103D100009F4819303957D9171937723C1F70895F9
:103D20000F92B801469F8001479F100D569F100DBE
:103D30000F9008950F921F922F92C801D901489FAA
:103D400080014A9F90014B9F202C499F100D211DFF
:103D5000321D5A9F202C589F100D211D321D599F36
:103D6000200D311D689F200D311D699F300D789FFA
:103D7000300D2F901F900F9008950E94CC1E0D9231
:103D80000020D9F70895369A3699FECF369A36999B
:103D9000FECF84B195B10895C8953196002008955D
:103DA00091E005C092E003C094E001C098E0F4DF28
:103DB0000D929A95E1F70895E80FF91FF1CF2E2E95
:103DC0003F2E992781918D3209F093958823D1F761
:103DD0009A95E22DF32D112361F0091718F011F0D7
:103DE000101B01C0191B28F021F080E28D931A9559
:103DF000E9F780818D3219F48D93319604C0222326
:103E000011F08BE28D93091738F031F0091B21F086
:103E100080E38D930A95E9F781918D938823E1F7EB
:103E2000332351F0EA2FFB2F319633958E918293F5
:103E30003A95E1F78EE28C93089599278D919395A9
:103E40008823E1F7939511968C9311978E919A950B
:103E5000D1F70895EA2FFB2F00244C918D91039404
:103E60008E32E1F711248D9113948823E1F71A948F
:103E7000101640F41197202F2119239580E38D937C
:103E80002A95E9F7113039F59927AE2FBF2FA00DEC
:103E9000B91FA00FB91F8C919C93853308F421C0E2
:103EA00031E08E918E32E9F38D3241F0830F8A3307
:103EB00019F480E331E001C033278C93AE1789F702
:103EC000332341F0AE2FBF2FB8DF81E34D3209F429
:103ED0003196808308958827E00DF81FE00FF81FC2
:103EE00080830895000F111F221F331F089500952E
:103EF0001095209530950F5F1F4F2F4F3F4F08951E
:103F0000019110810FC00E94681E0EC00E94681EA1
:103F100010C00191108117FF05C03FEF2FEF04C0C3
:103F2000008111272227332737FF03C0E0DF8DE20E
:103F30008D93CF92DF92EF92AA24BB24CC24DD2470
:103F4000EE2440E2EAE0FF2755E093E38081890F09
:103F500087FD9F7083FD907F891B81935A95A9F7F8
:103F6000C1DFAA1CBB1CCC1CDD1CEE1C4A9551F702
:103F7000E894EFE0FF2782910CD0EB30E0F71EF0E1
:103F800068948A2D0AD088278D93EF90DF90CF9088
:103F90000895982F829501D0892F8F70805D26F02B
:103FA000803309F4089568948D93089541E003C027
:103FB00042E001C044E0E40F8827F81F8291982F67
:103FC000829506D0892F04D04A95C1F70C94EF1F33
:103FD0008F708A3008F0895F805D8D9308958827FF
:103FE0008D93089581918D938823E1F7089500239F
:103FF00029F081918D930A958823C9F7F0CFE19933
:10400000FECFEEBBFFBB3196089591E001C092E078
:104010007B3751F47FB7F894F2DF8D918DBBE29A34
:10402000E19A9A95C9F77FBF7727089591E001C07B
:1040300092E0E5DFE09A8DB38D939A95D1F70895DC
:10404000FF93881BF9E0001FFA9511F4FF91089582
:10405000881F841B18F4840F8894F5CF0894F3CF3D
:104060008FEF83959D919923E1F708950F928F9398
:104070009F93D216E306F4060FB680E890E88027F7
:1040800095270FBE890739F00FB6892B87FD02C02F
:1040900081E008260FBE9F918F910F900895D190D7
:1040A000E190F190019108950E94CC1E202D0E9474
:1040B000CC1E302D0E94CC1E402D0E94CC1E502DB7
:1040C0000895000000004175746F20726573657477
:1040D00020616674657200002037205365676D6546
:1040E0006E74205465737420000053572000200024
:1040F00020697320707265737365642E0000202040
:1041000020202020202020202020202020200000EF
:104110002045746133326D696E69206B69742020AB
:1041200000005357202D2D20697320707265737322
:10413000656400002020416E616C6F6720546573D8
:10414000742020200000566F6C7428504130293DA7
:104150002020202020560000202053657269616CC9
:10416000207465737420202000004641524553504E
:10417000434220436F2E000041544D454C20415690
:104180005220446576656C6F706D656E74206B6946
:10419000742E000045746133326D696E69206B695D
:1041A000742E000041726475696E6F204944452089
:1041B000636F6D70617469626C652E003D0046002E
:1041C00041005200450053005000430042006F0080
:1041D0002E00330032006D0069006E005400740040
:0C41E0004D0061004C0056004B006B00CD
:00000001FF
