S01000006F6E6C696E6531362E7372656328
S11300000C942A000C9447000C9447000C9447006D
S11300100C9447000C9447000C9447000C94470040
S11300200C9447000C9447000C9447000C94470030
S11300300C9447000C9447000C9447000C94470020
S11300400C9447000C9447000C9447000C94470010
S11300500C94470011241FBECFE5D8E0DEBFCDBF0E
S113006010E0A0E6B0E0EEEFFAE002C005900D92D9
S1130070AC3EB107D9F720E0ACEEB0E001C01D9270
S1130080AC3EB207E1F70E942A020C947D050C9461
S11300900000CF93CCE061E08C2F0E949F03CF5FE0
S11300A0C031C9F7CF910895DF92EF92FF920F9379
S11300B01F93CF93DF9394E9E92E90E0F92ECCE0DF
S11300C0D4E560E08C2F0E949F0300E010E08AE1F9
S11300D0D82ED00E8D2D0E941E04811109C0F70167
S11300E0E00FF11FD0818D2D0E941E048823D9F3C7
S11300F00F5F1F4F0430110551F761E08C2F0E94F0
S11301009F03CF5F84E0E80EF11CC031D1F68D2F40
S1130110DF91CF911F910F91FF90EF90DF900895A1
S1130120CF93C82F60E081E00E949F036C2F661F6D
S11301306627661F86E00E949F03C6FB662760F958
S113014085E00E949F03C5FB662760F984E00E9456
S11301509F03C4FB662760F983E00E949F0361E06C
S113016082E00E949F038FEC97E00197F1F700C0B3
S1130170000060E082E00E949F038FEC97E001970B
S1130180F1F700C00000C3FB662760F986E00E9417
S11301909F03C2FB662760F985E00E949F03C1FBB1
S11301A0662760F984E00E949F036C2F617083E0EE
S11301B00E949F0361E082E00E949F038FEC97E01E
S11301C00197F1F700C0000060E082E00E949F0305
S11301D08FEC97E00197F1F700C00000CF910895EC
S11301E0CF93C82F61E081E00E949F036C2F661FAC
S11301F06627661F86E00E949F03C6FB662760F998
S113020085E00E949F03C5FB662760F984E00E9495
S11302109F03C4FB662760F983E00E949F0361E0AB
S113022082E00E949F038FEC97E00197F1F700C0F2
S1130230000060E082E00E949F038FEC97E001974A
S1130240F1F700C00000C3FB662760F986E00E9456
S11302509F03C2FB662760F985E00E949F03C1FBF0
S1130260662760F984E00E949F036C2F617083E02D
S11302700E949F0361E082E00E949F038FEC97E05D
S11302800197F1F700C0000060E082E00E949F0344
S11302908FEC97E00197F1F700C00000CF9108952B
S11302A02FE788E391E0215080409040E1F700C0BF
S11302B0000082E00E94900088E20E9490008CE09E
S11302C00E94900081E00E9490008FEC97E00197DB
S11302D0F1F700C0000086E00C9490000C94F0004C
S11302E00F931F93CF938C01C0E0F801EC0FF11D25
S11302F08081882321F00E94F000CF5FF6CFCF9158
S11303001F910F9108954F925F926F927F92AF92D7
S1130310BF92CF92DF92EF92FF920F931F93CF93EE
S1130320DF93CDB7DEB72A970FB6F894DEBF0FBEC2
S1130330CDBF6B017C016115710581059105B9F48F
S113034080E32A960FB6F894DEBF0FBECDBFDF91CF
S1130350CF911F910F91FF90EF90DF90CF90BF90BE
S1130360AF907F906F905F904F900C94F00097FF48
S11303700BC08DE20E94F000F094E094D094C094FD
S1130380C11CD11CE11CF11C10E09AE0492E512C37
S1130390612C712C01E0010FAA24A394B12CAC0EA2
S11303A0BD1EA10EB11C17FDBA94C701B601A3016D
S11303B092010E942D05605DF501608369017A0157
S11303C0C114D104E104F10411F0102FE3CF17FD9F
S11303D00DC0E1E0F0E0EC0FFD1FE10FF11D17FD92
S11303E0FA9580810E94F0001150F1CF2A960FB641
S11303F0F894DEBF0FBECDBFDF91CF911F910F9157
S1130400FF90EF90DF90CF90BF90AF907F906F9070
S11304105F904F90089581E00E9490008FEC97E0E8
S11304200197F1F700C000000895811102C080E82F
S113043001C080EC860F0C949000CF93DF93EA0107
S11304400E941502CE01DF91CF910C94700180E0DF
S11304500C948E03CF93DF93CDB7DEB764970FB6BA
S1130460F894DEBF0FBECDBF0E943B040E94500132
S11304700E94490066E081E00E946E038FE0E0E69E
S1130480F0E0DE01119601900D928A95E1F7FE01EC
S1130490709685E0DF011D928A95E9F7AE014F5F02
S11304A05F4F60E080E00E941D0260E081E00E94F6
S11304B0150284EA90E00E947001BFEF20E782E019
S11304C0B15020408040E1F700C000000E940B02C0
S11304D000E010E08AE0C82ED12C9AE0B92E0E94E8
S11304E027027C0160E080E00E94150284EB90E02A
S11304F00E94700166E080E00E941502C701B60107
S11305000E9419054C0180E090E00E9483018EE274
S11305100E946E01B40180E090E00E9483018AEBA6
S113052090E00E94700160E081E00E9415028FEB70
S113053090E00E94700190E9E91691E0F90680F4D8
S1130540AFE5BAEE1197F1F700C0000068E081E072
S11305500E94150287EC90E00E947001909815C0EB
S1130560C701805991408639910598F48FE59AEE38
S11305700197F1F700C0000068E081E00E941502D5
S11305808EEC90E00E947001909A91989698C3988E
S113059091C098E5E91692E0F90608F48BC0AFE241
S11305A0B5E71197F1F700C0000068E081E00E9410
S11305B015028AED90E00E947001919A9098969AA3
S11305C0C39ABFEF23EC89E0B15020408040E1F7AB
S11305D000C000000E940B02023D84E0180709F4E9
S11305E06EC00E945400E82EF12C60E080E00E946E
S11305F0150282EE90E00E94700194E5E916F10480
S113060059F3B09EC001B19E900D11248C0100538A
S113061011090E0D1F1D69E080E00E941502B8014A
S113062080E090E00E9483010131A7E21A07F0F014
S11306300E940B02BFE728E381E0B15020408040D4
S1130640E1F700C0000060E080E00E94150282EE45
S113065090E00E94700169E080E00E94150260E071
S113066070E0CB010E94830100E010E093E6E916FC
S1130670F10409F0B1CF0E940B02AFE7B8E321E027
S1130680A150B0402040E1F700C0000060E080E0ED
S11306900E94150282EE90E00E94700169E080E001
S11306A00E94150260E070E0CB010E94830100E02B
S11306B010E092CF023D24E0120709F010CF919888
S11306C09698C3989FEFA1EEB4E09150A040B0403B
S11306D0E1F700C0000002ED14E001CF813041F0E9
S11306E028F0823039F43E9A3F9A04C03E9801C003
S11306F03E9A3F9886B1887F86B986B1682B66B9E1
S1130700379A089597B1907E97B997B1892B87B995
S1130710369A3699FECF84B195B108950E9482032A
S11307209C01A8E8B3E10E944C05DC01CB012AE05E
S1130730B695A795979587952A95D1F70895982FFB
S1130740969596959695877061113CC0913099F075
S113075028F09230E9F0933041F108954BB321E051
S113076030E0B90102C0660F771F8A95E2F7CB012A
S1130770809584233AC048B321E030E0B90102C037
S1130780660F771F8A95E2F7CB01809584233AC0E0
S113079045B321E030E0B90102C0660F771F8A95A6
S11307A0E2F7CB01809584233AC042B321E030E0E4
S11307B0B90102C0660F771F8A95E2F7CB018095D5
S11307C084233AC0913099F028F09230E9F09330C4
S11307D041F108954BB321E030E0B90102C0660F46
S11307E0771F8A95E2F7CB01842B8BBB089548B31E
S11307F021E030E0B90102C0660F771F8A95E2F765
S1130800CB01842B88BB089545B321E030E0B901C6
S113081002C0660F771F8A95E2F7CB01842B85BB54
S1130820089542B321E030E0B90102C0660F771F9A
S11308308A95E2F7CB01842B82BB0895282F277079
S1130840869586958695813049F030F0823041F066
S1130850833079F480B305C089B303C086B301C083
S113086083B390E002C0959587952A95E2F781704D
S1130870089580E00895E4E7F0E040E081E090E04E
S11308805191342F369536953695242F2770513053
S113089009F443C020F0523009F482C0C5C032309C
S11308A001F1333061F1313071F05AB3BC0102C04F
S11308B0660F771F2A95E2F79B01352F322B3ABB3F
S11308C03BB320953DC057B3BC0102C0660F771FF0
S11308D02A95E2F79B01352F322B37BB38B320958D
S11308E03EC054B3BC0102C0660F771F2A95E2F7DD
S11308F09B01352F322B34BB35B320953FC051B308
S1130900BC0102C0660F771F2A95E2F79B01352FC1
S1130910322B31BB32B3209541C0323011F1333028
S113092081F1313079F05AB3BC0102C0660F771FF0
S11309302A95E2F79B012095352F32233ABB3BB32E
S1130940232342C057B3BC0102C0660F771F2A9508
S1130950E2F79B012095352F322337BB38B323238D
S113096043C054B3BC0102C0660F771F2A95E2F757
S11309709B012095352F322334BB35B3232325BB6C
S113098053C051B3BC0102C0660F771F2A95E2F72A
S11309909B012095352F322331BB32B3232343C02F
S11309A0323021F1333089F1313081F05AB3BC0156
S11309B002C0660F771F2A95E2F79B01362F309508
S11309C035233ABB3BB3232B2BBB2EC057B3BC01FF
S11309D002C0660F771F2A95E2F79B01362F3095E8
S11309E0352337BB38B3232B28BB1EC054B3BC01FB
S11309F002C0660F771F2A95E2F79B01362F3095C8
S1130A00352334BB35B3232BBACF51B3BC0102C059
S1130A10660F771F2A95E2F79B01362F3095352311
S1130A2031BB32B3232B22BB4F5F403209F028CFB6
S1130A300895AA1BBB1B51E107C0AA1FBB1FA61721
S1130A40B70710F0A61BB70B881F991F5A95A9F773
S1130A5080959095BC01CD010895052E97FB1EF459
S1130A6000940E94440557FD07D00E945B0507FCD3
S1130A7003D04EF40C94440550954095309521953F
S1130A803F4F4F4F5F4F08959095809570956195B6
S1130A907F4F8F4F9F4F0895A29FB001B39FC00116
S1130AA0A39F700D811D1124911DB29F700D811D96
S1130AB01124911D0895A1E21A2EAA1BBB1BFD014E
S1130AC00DC0AA1FBB1FEE1FFF1FA217B307E40729
S1130AD0F50720F0A21BB30BE40BF50B661F771F81
S1130AE0881F991F1A9469F7609570958095909561
S1110AF09B01AC01BD01CF010895F894FFCF26
S1130AFE4669726520416C61726D205379730000F2
S1130B0E00000000010000000000000100000000D1
S1130B1E00000000000000000000000000000202BF
S1130B2E020200003738392F3435362A3132332B4E
S1130B3E63303D2D6279204F6D6172204D6F686177
S1130B4E6D65640054656D703A0020432020005397
S1130B5E74617475733A004E6F726D616C00486502
S1130B6E6174202020202020200046495245212156
S10F0B7E210070617373776F72643A0099
S9030000FC
